:020000040000FA
:0600000038EF01F01200D0
:020006000000F8
:08000800D9CFE6FFE1CFD9FFDB
:100010000B0EE126010EF36E030EF3CFDBFF040E91
:10002000DB6AC80EF36E090EF3CFDBFF0A0EDB6A44
:100030007ED8030EDBCF06F0040EDBCF07F0020EF6
:10004000061801E1075038E0010E061801E10750DB
:1000500001E062D0010EDF6EDF50836E71D8DF5099
:10006000E824DF6EDF5002E1010EDF6E81B020D0A8
:10007000090EDB060A0E01E2DB06D950090FE96E14
:10008000DACFEAFFEE50ED1012E1010EE76E030E3B
:10009000DBCF0BF0040EDBCF0CF0E7500B26000E8D
:1000A0000C22030E0BC0DBFF040E0CC0DBFFDED7FF
:1000B000DF50836ED3D730D0800EDF6EDF50836E7B
:1000C0003FD8DF407F0BDF6E81B023D0030EDBCF44
:1000D0000BF0DB06040EDBCF0CF001E2DB06030EB7
:1000E0000BC0DBFF040E0CC0DBFF010EDF6ED9502E
:1000F000030FE96EDACFEAFF020EEE1801E1ED50D0
:1001000007E1010EF36E030EF3CFDBFF040EDB6A93
:1001100003D0DF50836ED4D78CD70B0EE15C02E2A4
:10012000E16AE552E16EE552E7CFD9FF1200020E17
:10013000926E936E956A0F0EC16E806A836812008C
:10014000D9CFE6FFE1CFD9FF040EE126DE6ADD6AF2
:10015000DECF0BF0DDCF0CF00C3404E20B50640862
:10016000000E0C541CE3020EDB6A030EDB6A020E67
:10017000DBCF0BF0030EDBCF0CF00C3404E20B50A2
:10018000E808030E0C5406E3020EDB2A030E01E31B
:10019000DB2AEDD7DF2A010E01E3DB2AD9D7040ED3
:1001A000E15C02E2E16AE552E16EE552E7CFD9FF98
:0201B00012003B
:0E01B200060EF66E000EF76E000EF86E0001DF
:1001C0000900F550656F0900F550666F03E165673A
:1001D00001D03DD00900F550606F0900F550616F06
:1001E0000900F550626F09000900F550E96E090039
:1001F000F550EA6E090009000900F550636F090027
:10020000F550646F09000900F6CF67F0F7CF68F08A
:10021000F8CF69F060C0F6FF61C0F7FF62C0F8FF79
:100220000001635302E1645307E00900F550EE6EEC
:100230006307F8E26407F9D767C0F6FF68C0F7FF05
:1002400069C0F8FF00016507000E665BBFD71200AA
:10025000000EF36E00EE00F0060E01D81200EA6008
:1002600002D0EE6AFCD7F350E9601200EE6AFCD7C8
:1002700015EE00F025EE00F0F86A0A9CD9EC00F0CB
:0C02800046EC01F004EC00F0FBD712008B
:02028C0012005E
:00000001FF
